{
  "contractName": "Metabaes",
  "abi": [
    {
      "inputs": [],
      "stateMutability": "nonpayable",
      "type": "constructor"
    },
    {
      "anonymous": false,
      "inputs": [
        {
          "indexed": true,
          "internalType": "address",
          "name": "owner",
          "type": "address"
        },
        {
          "indexed": true,
          "internalType": "address",
          "name": "approved",
          "type": "address"
        },
        {
          "indexed": true,
          "internalType": "uint256",
          "name": "tokenId",
          "type": "uint256"
        }
      ],
      "name": "Approval",
      "type": "event"
    },
    {
      "anonymous": false,
      "inputs": [
        {
          "indexed": true,
          "internalType": "address",
          "name": "owner",
          "type": "address"
        },
        {
          "indexed": true,
          "internalType": "address",
          "name": "operator",
          "type": "address"
        },
        {
          "indexed": false,
          "internalType": "bool",
          "name": "approved",
          "type": "bool"
        }
      ],
      "name": "ApprovalForAll",
      "type": "event"
    },
    {
      "anonymous": false,
      "inputs": [
        {
          "indexed": true,
          "internalType": "address",
          "name": "previousOwner",
          "type": "address"
        },
        {
          "indexed": true,
          "internalType": "address",
          "name": "newOwner",
          "type": "address"
        }
      ],
      "name": "OwnershipTransferred",
      "type": "event"
    },
    {
      "anonymous": false,
      "inputs": [
        {
          "indexed": true,
          "internalType": "address",
          "name": "from",
          "type": "address"
        },
        {
          "indexed": true,
          "internalType": "address",
          "name": "to",
          "type": "address"
        },
        {
          "indexed": true,
          "internalType": "uint256",
          "name": "tokenId",
          "type": "uint256"
        }
      ],
      "name": "Transfer",
      "type": "event"
    },
    {
      "anonymous": false,
      "inputs": [
        {
          "indexed": false,
          "internalType": "string",
          "name": "_licenseText",
          "type": "string"
        }
      ],
      "name": "licenseisLocked",
      "type": "event"
    },
    {
      "anonymous": false,
      "inputs": [
        {
          "indexed": false,
          "internalType": "address",
          "name": "_by",
          "type": "address"
        },
        {
          "indexed": false,
          "internalType": "uint256",
          "name": "_tokenId",
          "type": "uint256"
        },
        {
          "indexed": false,
          "internalType": "string",
          "name": "_name",
          "type": "string"
        }
      ],
      "name": "metabaesNameChange",
      "type": "event"
    },
    {
      "inputs": [],
      "name": "LICENSE_TEXT",
      "outputs": [
        {
          "internalType": "string",
          "name": "",
          "type": "string"
        }
      ],
      "stateMutability": "view",
      "type": "function",
      "constant": true
    },
    {
      "inputs": [],
      "name": "MAX_METABAES",
      "outputs": [
        {
          "internalType": "uint256",
          "name": "",
          "type": "uint256"
        }
      ],
      "stateMutability": "view",
      "type": "function",
      "constant": true
    },
    {
      "inputs": [],
      "name": "METABAES_PROVENANCE",
      "outputs": [
        {
          "internalType": "string",
          "name": "",
          "type": "string"
        }
      ],
      "stateMutability": "view",
      "type": "function",
      "constant": true
    },
    {
      "inputs": [
        {
          "internalType": "address",
          "name": "to",
          "type": "address"
        },
        {
          "internalType": "uint256",
          "name": "tokenId",
          "type": "uint256"
        }
      ],
      "name": "approve",
      "outputs": [],
      "stateMutability": "nonpayable",
      "type": "function"
    },
    {
      "inputs": [
        {
          "internalType": "address",
          "name": "owner",
          "type": "address"
        }
      ],
      "name": "balanceOf",
      "outputs": [
        {
          "internalType": "uint256",
          "name": "",
          "type": "uint256"
        }
      ],
      "stateMutability": "view",
      "type": "function",
      "constant": true
    },
    {
      "inputs": [],
      "name": "baseURI",
      "outputs": [
        {
          "internalType": "string",
          "name": "",
          "type": "string"
        }
      ],
      "stateMutability": "view",
      "type": "function",
      "constant": true
    },
    {
      "inputs": [
        {
          "internalType": "uint256",
          "name": "tokenId",
          "type": "uint256"
        }
      ],
      "name": "getApproved",
      "outputs": [
        {
          "internalType": "address",
          "name": "",
          "type": "address"
        }
      ],
      "stateMutability": "view",
      "type": "function",
      "constant": true
    },
    {
      "inputs": [
        {
          "internalType": "address",
          "name": "owner",
          "type": "address"
        },
        {
          "internalType": "address",
          "name": "operator",
          "type": "address"
        }
      ],
      "name": "isApprovedForAll",
      "outputs": [
        {
          "internalType": "bool",
          "name": "",
          "type": "bool"
        }
      ],
      "stateMutability": "view",
      "type": "function",
      "constant": true
    },
    {
      "inputs": [],
      "name": "maxMetabaesPurchase",
      "outputs": [
        {
          "internalType": "uint256",
          "name": "",
          "type": "uint256"
        }
      ],
      "stateMutability": "view",
      "type": "function",
      "constant": true
    },
    {
      "inputs": [
        {
          "internalType": "uint256",
          "name": "",
          "type": "uint256"
        }
      ],
      "name": "metabaesNames",
      "outputs": [
        {
          "internalType": "string",
          "name": "",
          "type": "string"
        }
      ],
      "stateMutability": "view",
      "type": "function",
      "constant": true
    },
    {
      "inputs": [],
      "name": "metabaesPrice",
      "outputs": [
        {
          "internalType": "uint256",
          "name": "",
          "type": "uint256"
        }
      ],
      "stateMutability": "view",
      "type": "function",
      "constant": true
    },
    {
      "inputs": [],
      "name": "metabaesReserve",
      "outputs": [
        {
          "internalType": "uint256",
          "name": "",
          "type": "uint256"
        }
      ],
      "stateMutability": "view",
      "type": "function",
      "constant": true
    },
    {
      "inputs": [],
      "name": "name",
      "outputs": [
        {
          "internalType": "string",
          "name": "",
          "type": "string"
        }
      ],
      "stateMutability": "view",
      "type": "function",
      "constant": true
    },
    {
      "inputs": [],
      "name": "owner",
      "outputs": [
        {
          "internalType": "address",
          "name": "",
          "type": "address"
        }
      ],
      "stateMutability": "view",
      "type": "function",
      "constant": true
    },
    {
      "inputs": [
        {
          "internalType": "uint256",
          "name": "tokenId",
          "type": "uint256"
        }
      ],
      "name": "ownerOf",
      "outputs": [
        {
          "internalType": "address",
          "name": "",
          "type": "address"
        }
      ],
      "stateMutability": "view",
      "type": "function",
      "constant": true
    },
    {
      "inputs": [],
      "name": "renounceOwnership",
      "outputs": [],
      "stateMutability": "nonpayable",
      "type": "function"
    },
    {
      "inputs": [
        {
          "internalType": "address",
          "name": "from",
          "type": "address"
        },
        {
          "internalType": "address",
          "name": "to",
          "type": "address"
        },
        {
          "internalType": "uint256",
          "name": "tokenId",
          "type": "uint256"
        }
      ],
      "name": "safeTransferFrom",
      "outputs": [],
      "stateMutability": "nonpayable",
      "type": "function"
    },
    {
      "inputs": [
        {
          "internalType": "address",
          "name": "from",
          "type": "address"
        },
        {
          "internalType": "address",
          "name": "to",
          "type": "address"
        },
        {
          "internalType": "uint256",
          "name": "tokenId",
          "type": "uint256"
        },
        {
          "internalType": "bytes",
          "name": "_data",
          "type": "bytes"
        }
      ],
      "name": "safeTransferFrom",
      "outputs": [],
      "stateMutability": "nonpayable",
      "type": "function"
    },
    {
      "inputs": [
        {
          "internalType": "address",
          "name": "operator",
          "type": "address"
        },
        {
          "internalType": "bool",
          "name": "approved",
          "type": "bool"
        }
      ],
      "name": "setApprovalForAll",
      "outputs": [],
      "stateMutability": "nonpayable",
      "type": "function"
    },
    {
      "inputs": [
        {
          "internalType": "bytes4",
          "name": "interfaceId",
          "type": "bytes4"
        }
      ],
      "name": "supportsInterface",
      "outputs": [
        {
          "internalType": "bool",
          "name": "",
          "type": "bool"
        }
      ],
      "stateMutability": "view",
      "type": "function",
      "constant": true
    },
    {
      "inputs": [],
      "name": "symbol",
      "outputs": [
        {
          "internalType": "string",
          "name": "",
          "type": "string"
        }
      ],
      "stateMutability": "view",
      "type": "function",
      "constant": true
    },
    {
      "inputs": [
        {
          "internalType": "uint256",
          "name": "index",
          "type": "uint256"
        }
      ],
      "name": "tokenByIndex",
      "outputs": [
        {
          "internalType": "uint256",
          "name": "",
          "type": "uint256"
        }
      ],
      "stateMutability": "view",
      "type": "function",
      "constant": true
    },
    {
      "inputs": [
        {
          "internalType": "address",
          "name": "owner",
          "type": "address"
        },
        {
          "internalType": "uint256",
          "name": "index",
          "type": "uint256"
        }
      ],
      "name": "tokenOfOwnerByIndex",
      "outputs": [
        {
          "internalType": "uint256",
          "name": "",
          "type": "uint256"
        }
      ],
      "stateMutability": "view",
      "type": "function",
      "constant": true
    },
    {
      "inputs": [
        {
          "internalType": "uint256",
          "name": "tokenId",
          "type": "uint256"
        }
      ],
      "name": "tokenURI",
      "outputs": [
        {
          "internalType": "string",
          "name": "",
          "type": "string"
        }
      ],
      "stateMutability": "view",
      "type": "function",
      "constant": true
    },
    {
      "inputs": [],
      "name": "totalSupply",
      "outputs": [
        {
          "internalType": "uint256",
          "name": "",
          "type": "uint256"
        }
      ],
      "stateMutability": "view",
      "type": "function",
      "constant": true
    },
    {
      "inputs": [
        {
          "internalType": "address",
          "name": "from",
          "type": "address"
        },
        {
          "internalType": "address",
          "name": "to",
          "type": "address"
        },
        {
          "internalType": "uint256",
          "name": "tokenId",
          "type": "uint256"
        }
      ],
      "name": "transferFrom",
      "outputs": [],
      "stateMutability": "nonpayable",
      "type": "function"
    },
    {
      "inputs": [
        {
          "internalType": "address",
          "name": "newOwner",
          "type": "address"
        }
      ],
      "name": "transferOwnership",
      "outputs": [],
      "stateMutability": "nonpayable",
      "type": "function"
    },
    {
      "inputs": [],
      "name": "withdraw",
      "outputs": [],
      "stateMutability": "nonpayable",
      "type": "function"
    },
    {
      "inputs": [
        {
          "internalType": "address",
          "name": "_to",
          "type": "address"
        },
        {
          "internalType": "uint256",
          "name": "_reserveAmount",
          "type": "uint256"
        }
      ],
      "name": "reserveMetabaes",
      "outputs": [],
      "stateMutability": "nonpayable",
      "type": "function"
    },
    {
      "inputs": [
        {
          "internalType": "string",
          "name": "provenanceHash",
          "type": "string"
        }
      ],
      "name": "setProvenanceHash",
      "outputs": [],
      "stateMutability": "nonpayable",
      "type": "function"
    },
    {
      "inputs": [
        {
          "internalType": "string",
          "name": "baseURI",
          "type": "string"
        }
      ],
      "name": "setBaseURI",
      "outputs": [],
      "stateMutability": "nonpayable",
      "type": "function"
    },
    {
      "inputs": [
        {
          "internalType": "address",
          "name": "_owner",
          "type": "address"
        }
      ],
      "name": "tokensOfOwner",
      "outputs": [
        {
          "internalType": "uint256[]",
          "name": "",
          "type": "uint256[]"
        }
      ],
      "stateMutability": "view",
      "type": "function",
      "constant": true
    },
    {
      "inputs": [
        {
          "internalType": "uint256",
          "name": "_id",
          "type": "uint256"
        }
      ],
      "name": "tokenLicense",
      "outputs": [
        {
          "internalType": "string",
          "name": "",
          "type": "string"
        }
      ],
      "stateMutability": "view",
      "type": "function",
      "constant": true
    },
    {
      "inputs": [],
      "name": "lockLicense",
      "outputs": [],
      "stateMutability": "nonpayable",
      "type": "function"
    },
    {
      "inputs": [
        {
          "internalType": "string",
          "name": "_license",
          "type": "string"
        }
      ],
      "name": "changeLicense",
      "outputs": [],
      "stateMutability": "nonpayable",
      "type": "function"
    },
    {
      "inputs": [
        {
          "internalType": "uint256",
          "name": "numberOfTokens",
          "type": "uint256"
        }
      ],
      "name": "mintMetabaes",
      "outputs": [],
      "stateMutability": "payable",
      "type": "function",
      "payable": true
    },
    {
      "inputs": [
        {
          "internalType": "uint256",
          "name": "_tokenId",
          "type": "uint256"
        },
        {
          "internalType": "string",
          "name": "_name",
          "type": "string"
        }
      ],
      "name": "changeMetabaesName",
      "outputs": [],
      "stateMutability": "nonpayable",
      "type": "function"
    },
    {
      "inputs": [
        {
          "internalType": "uint256",
          "name": "_tokenId",
          "type": "uint256"
        }
      ],
      "name": "viewMetabaesName",
      "outputs": [
        {
          "internalType": "string",
          "name": "",
          "type": "string"
        }
      ],
      "stateMutability": "view",
      "type": "function",
      "constant": true
    },
    {
      "inputs": [
        {
          "internalType": "address",
          "name": "_owner",
          "type": "address"
        }
      ],
      "name": "metabaesNamesOfOwner",
      "outputs": [
        {
          "internalType": "string[]",
          "name": "",
          "type": "string[]"
        }
      ],
      "stateMutability": "view",
      "type": "function",
      "constant": true
    }
  ],
  "bytecode": "0x60a06040819052600060808190526200001b91600b91620001f4565b506040805160208101918290526000908190526200003c91600c91620001f4565b50600d805460ff19169055607d600f553480156200005957600080fd5b5060408051808201825260088152674d6574616261657360c01b6020808301919091528251808401909352600383526226aa2160e91b9083015290620000a66301ffc9a760e01b6200016b565b8151620000bb906006906020850190620001f4565b508051620000d1906007906020840190620001f4565b50620000e46380ac58cd60e01b6200016b565b620000f6635b5e139f60e01b6200016b565b6200010863780e9d6360e01b6200016b565b506000905062000117620001f0565b600a80546001600160a01b0319166001600160a01b038316908117909155604051919250906000907f8be0079c531659141344cd1fd0a4f28419497f9722a3daafe3b4186f6b6457e0908290a350620002a0565b6001600160e01b03198082161415620001cb576040805162461bcd60e51b815260206004820152601c60248201527f4552433136353a20696e76616c696420696e7465726661636520696400000000604482015290519081900360640190fd5b6001600160e01b0319166000908152602081905260409020805460ff19166001179055565b3390565b828054600181600116156101000203166002900490600052602060002090601f0160209004810192826200022c576000855562000277565b82601f106200024757805160ff191683800117855562000277565b8280016001018555821562000277579182015b82811115620002775782518255916020019190600101906200025a565b506200028592915062000289565b5090565b5b808211156200028557600081556001016200028a565b6132db80620002b06000396000f3fe6080604052600436106101d05760003560e01c8063715018a6116100fe578063715018a614610448578063774c28571461045d578063782b23041461047d5780638462151c146104925780638da5cb5b146104bf57806395d89b41146104d45780639b9113cf146104e95780639c3e72bd146104fe578063a0dc39f214610513578063a1d1f84c14610528578063a22cb4651461053d578063b09904b51461055d578063b7db20d31461057d578063b88d4fde1461059d578063bf4702fc146105bd578063c87b56dd146105d2578063d9b137b2146105f2578063e284aaf514610612578063e985e9c514610627578063f2fde38b14610647576101d0565b806301ffc9a7146101d557806306fdde031461020b578063081812fc1461022d578063095ea7b31461025a57806309c36f511461027c578063109695231461028f57806318160ddd146102af5780631c5aacb0146102d157806323b872dd146102fe5780632f745c591461031e578063336c707f1461033e5780633ccfd60b1461035e57806342842e0e146103735780634f6ccce71461039357806353429762146103b357806355f804b3146103d35780636352211e146103f35780636c0360eb1461041357806370a0823114610428575b600080fd5b3480156101e157600080fd5b506101f56101f0366004612ab3565b610667565b6040516102029190612d09565b60405180910390f35b34801561021757600080fd5b5061022061068a565b6040516102029190612d14565b34801561023957600080fd5b5061024d610248366004612b0d565b610720565b6040516102029190612c21565b34801561026657600080fd5b5061027a610275366004612a72565b610782565b005b61027a61028a366004612b0d565b610858565b34801561029b57600080fd5b5061027a6102aa366004612adb565b610930565b3480156102bb57600080fd5b506102c46109a5565b6040516102029190612fd6565b3480156102dd57600080fd5b506102f16102ec366004612939565b6109b6565b6040516102029190612c65565b34801561030a57600080fd5b5061027a610319366004612985565b610b29565b34801561032a57600080fd5b506102c4610339366004612a72565b610b80565b34801561034a57600080fd5b5061027a610359366004612a72565b610bab565b34801561036a57600080fd5b5061027a610c7c565b34801561037f57600080fd5b5061027a61038e366004612985565b610d0d565b34801561039f57600080fd5b506102c46103ae366004612b0d565b610d28565b3480156103bf57600080fd5b506102206103ce366004612b0d565b610d3e565b3480156103df57600080fd5b5061027a6103ee366004612adb565b610e05565b3480156103ff57600080fd5b5061024d61040e366004612b0d565b610e73565b34801561041f57600080fd5b50610220610e9b565b34801561043457600080fd5b506102c4610443366004612939565b610efc565b34801561045457600080fd5b5061027a610f64565b34801561046957600080fd5b50610220610478366004612b0d565b611010565b34801561048957600080fd5b506102c46110ab565b34801561049e57600080fd5b506104b26104ad366004612939565b6110b1565b6040516102029190612cc5565b3480156104cb57600080fd5b5061024d611154565b3480156104e057600080fd5b50610220611163565b3480156104f557600080fd5b506102206111c4565b34801561050a57600080fd5b5061022061121f565b34801561051f57600080fd5b506102c461127a565b34801561053457600080fd5b506102c461127f565b34801561054957600080fd5b5061027a610558366004612a38565b61128a565b34801561056957600080fd5b5061027a610578366004612adb565b61138b565b34801561058957600080fd5b5061027a610598366004612b25565b611423565b3480156105a957600080fd5b5061027a6105b83660046129c0565b61157e565b3480156105c957600080fd5b5061027a6115dc565b3480156105de57600080fd5b506102206105ed366004612b0d565b611686565b3480156105fe57600080fd5b5061022061060d366004612b0d565b611907565b34801561061e57600080fd5b506102c461198a565b34801561063357600080fd5b506101f5610642366004612953565b611990565b34801561065357600080fd5b5061027a610662366004612939565b6119be565b6001600160e01b0319811660009081526020819052604090205460ff165b919050565b60068054604080516020601f60026000196101006001881615020190951694909404938401819004810282018101909252828152606093909290918301828280156107165780601f106106eb57610100808354040283529160200191610716565b820191906000526020600020905b8154815290600101906020018083116106f957829003601f168201915b5050505050905090565b600061072b82611ac1565b6107665760405162461bcd60e51b815260040180806020018281038252602c8152602001806131b0602c913960400191505060405180910390fd5b506000908152600460205260409020546001600160a01b031690565b600061078d82610e73565b9050806001600160a01b0316836001600160a01b031614156107e05760405162461bcd60e51b81526004018080602001828103825260218152602001806132546021913960400191505060405180910390fd5b806001600160a01b03166107f2611ace565b6001600160a01b0316148061080e575061080e81610642611ace565b6108495760405162461bcd60e51b81526004018080602001828103825260388152602001806130e26038913960400191505060405180910390fd5b6108538383611ad2565b505050565b600081118015610869575060148111155b61088e5760405162461bcd60e51b815260040161088590612e9f565b60405180910390fd5b611e616108a38261089d6109a5565b90611b40565b11156108c15760405162461bcd60e51b815260040161088590612f8a565b6108d26658d15e1762800082611b98565b3410156108f15760405162461bcd60e51b815260040161088590612e1d565b60005b8181101561092c5760006109066109a5565b9050611e616109136109a5565b1015610923576109233382611bf1565b506001016108f4565b5050565b610938611ace565b6001600160a01b0316610949611154565b6001600160a01b031614610992576040805162461bcd60e51b815260206004820181905260248201526000805160206131dc833981519152604482015290519081900360640190fd5b805161092c90600b9060208401906127ff565b60006109b16002611c0b565b905090565b606060006109c383610efc565b9050806109fe5760408051600080825260208201909252906109f5565b60608152602001906001900390816109e05790505b50915050610685565b6000816001600160401b0381118015610a1657600080fd5b50604051908082528060200260200182016040528015610a4a57816020015b6060815260200190600190039081610a355790505b50905060005b82811015610b1f57600e6000610a668784610b80565b815260208082019290925260409081016000208054825160026001831615610100026000190190921691909104601f810185900485028201850190935282815292909190830182828015610afb5780601f10610ad057610100808354040283529160200191610afb565b820191906000526020600020905b815481529060010190602001808311610ade57829003601f168201915b5050505050828281518110610b0c57fe5b6020908102919091010152600101610a50565b5091506106859050565b610b3a610b34611ace565b82611c16565b610b755760405162461bcd60e51b81526004018080602001828103825260318152602001806132756031913960400191505060405180910390fd5b610853838383611cba565b6001600160a01b0382166000908152600160205260408120610ba29083611e06565b90505b92915050565b610bb3611ace565b6001600160a01b0316610bc4611154565b6001600160a01b031614610c0d576040805162461bcd60e51b815260206004820181905260248201526000805160206131dc833981519152604482015290519081900360640190fd5b6000610c176109a5565b9050600082118015610c2b5750600f548211155b610c475760405162461bcd60e51b815260040161088590612de8565b60005b82811015610c6657610c5e84828401611bf1565b600101610c4a565b50600f54610c749083611e12565b600f55505050565b610c84611ace565b6001600160a01b0316610c95611154565b6001600160a01b031614610cde576040805162461bcd60e51b815260206004820181905260248201526000805160206131dc833981519152604482015290519081900360640190fd5b6040514790339082156108fc029083906000818181858888f1935050505015801561092c573d6000803e3d6000fd5b6108538383836040518060200160405280600081525061157e565b600080610d36600284611e6f565b509392505050565b6060610d486109a5565b8210610d665760405162461bcd60e51b815260040161088590612ee0565b6000828152600e602090815260409182902080548351601f600260001961010060018616150201909316929092049182018490048402810184019094528084529091830182828015610df95780601f10610dce57610100808354040283529160200191610df9565b820191906000526020600020905b815481529060010190602001808311610ddc57829003601f168201915b50505050509050919050565b610e0d611ace565b6001600160a01b0316610e1e611154565b6001600160a01b031614610e67576040805162461bcd60e51b815260206004820181905260248201526000805160206131dc833981519152604482015290519081900360640190fd5b610e7081611e8b565b50565b6000610ba5826040518060600160405280602981526020016131446029913960029190611e9e565b60098054604080516020601f60026000196101006001881615020190951694909404938401819004810282018101909252828152606093909290918301828280156107165780601f106106eb57610100808354040283529160200191610716565b60006001600160a01b038216610f435760405162461bcd60e51b815260040180806020018281038252602a81526020018061311a602a913960400191505060405180910390fd5b6001600160a01b0382166000908152600160205260409020610ba590611c0b565b610f6c611ace565b6001600160a01b0316610f7d611154565b6001600160a01b031614610fc6576040805162461bcd60e51b815260206004820181905260248201526000805160206131dc833981519152604482015290519081900360640190fd5b600a546040516000916001600160a01b0316907f8be0079c531659141344cd1fd0a4f28419497f9722a3daafe3b4186f6b6457e0908390a3600a80546001600160a01b0319169055565b600e6020908152600091825260409182902080548351601f6002600019610100600186161502019093169290920491820184900484028101840190945280845290918301828280156110a35780601f10611078576101008083540402835291602001916110a3565b820191906000526020600020905b81548152906001019060200180831161108657829003601f168201915b505050505081565b611e6181565b606060006110be83610efc565b9050806110db5760408051600080825260208201909252906109f5565b6000816001600160401b03811180156110f357600080fd5b5060405190808252806020026020018201604052801561111d578160200160208202803683370190505b50905060005b82811015610b1f576111358582610b80565b82828151811061114157fe5b6020908102919091010152600101611123565b600a546001600160a01b031690565b60078054604080516020601f60026000196101006001881615020190951694909404938401819004810282018101909252828152606093909290918301828280156107165780601f106106eb57610100808354040283529160200191610716565b600b805460408051602060026001851615610100026000190190941693909304601f810184900484028201840190925281815292918301828280156110a35780601f10611078576101008083540402835291602001916110a3565b600c805460408051602060026001851615610100026000190190941693909304601f810184900484028201840190925281815292918301828280156110a35780601f10611078576101008083540402835291602001916110a3565b601481565b6658d15e1762800081565b611292611ace565b6001600160a01b0316826001600160a01b031614156112f4576040805162461bcd60e51b815260206004820152601960248201527822a9219b99189d1030b8383937bb32903a379031b0b63632b960391b604482015290519081900360640190fd5b8060056000611301611ace565b6001600160a01b03908116825260208083019390935260409182016000908120918716808252919093529120805460ff191692151592909217909155611345611ace565b6001600160a01b03167f17307eab39ab6107e8899845ad3d59bd9653f200f220920489ca2b5937696c318360405180821515815260200191505060405180910390a35050565b611393611ace565b6001600160a01b03166113a4611154565b6001600160a01b0316146113ed576040805162461bcd60e51b815260206004820181905260248201526000805160206131dc833981519152604482015290519081900360640190fd5b600d5460ff16156114105760405162461bcd60e51b815260040161088590612f5a565b805161092c90600c9060208401906127ff565b3361142d83610e73565b6001600160a01b0316146114535760405162461bcd60e51b815260040161088590612e54565b6000828152600e602052604090819020905160029161147191612bb1565b602060405180830381855afa15801561148e573d6000803e3d6000fd5b5050506040513d601f19601f820116820180604052508101906114b19190612a9b565b6002826040516114c19190612b95565b602060405180830381855afa1580156114de573d6000803e3d6000fd5b5050506040513d601f19601f820116820180604052508101906115019190612a9b565b141561151f5760405162461bcd60e51b815260040161088590612f17565b6000828152600e60209081526040909120825161153e928401906127ff565b507fa19cd205e22592370c10d192627b6cda090caec2dd0cb7b537753c3097d7d1b833838360405161157293929190612c35565b60405180910390a15050565b61158f611589611ace565b83611c16565b6115ca5760405162461bcd60e51b81526004018080602001828103825260318152602001806132756031913960400191505060405180910390fd5b6115d684848484611eb5565b50505050565b6115e4611ace565b6001600160a01b03166115f5611154565b6001600160a01b03161461163e576040805162461bcd60e51b815260206004820181905260248201526000805160206131dc833981519152604482015290519081900360640190fd5b600d805460ff191660011790556040517f92423ccd40e13759d50d24569dcbaccb20ade47247f3cf3e3951a9f29d2048b09061167c90600c90612d27565b60405180910390a1565b606061169182611ac1565b6116cc5760405162461bcd60e51b815260040180806020018281038252602f815260200180613225602f913960400191505060405180910390fd5b60008281526008602090815260408083208054825160026001831615610100026000190190921691909104601f81018590048502820185019093528281529290919083018282801561175f5780601f106117345761010080835404028352916020019161175f565b820191906000526020600020905b81548152906001019060200180831161174257829003601f168201915b505050505090506000611770610e9b565b905080516000141561178457509050610685565b8151156118455780826040516020018083805190602001908083835b602083106117bf5780518252601f1990920191602091820191016117a0565b51815160209384036101000a600019018019909216911617905285519190930192850191508083835b602083106118075780518252601f1990920191602091820191016117e8565b6001836020036101000a0380198251168184511680821785525050505050509050019250505060405160208183030381529060405292505050610685565b8061184f85611f07565b6040516020018083805190602001908083835b602083106118815780518252601f199092019160209182019101611862565b51815160209384036101000a600019018019909216911617905285519190930192850191508083835b602083106118c95780518252601f1990920191602091820191016118aa565b6001836020036101000a0380198251168184511680821785525050505050509050019250505060405160208183030381529060405292505050919050565b60606119116109a5565b821061192f5760405162461bcd60e51b815260040161088590612db1565b600c805460408051602060026001851615610100026000190190941693909304601f81018490048402820184019092528181529291830182828015610df95780601f10610dce57610100808354040283529160200191610df9565b600f5481565b6001600160a01b03918216600090815260056020908152604080832093909416825291909152205460ff1690565b6119c6611ace565b6001600160a01b03166119d7611154565b6001600160a01b031614611a20576040805162461bcd60e51b815260206004820181905260248201526000805160206131dc833981519152604482015290519081900360640190fd5b6001600160a01b038116611a655760405162461bcd60e51b815260040180806020018281038252602681526020018061306c6026913960400191505060405180910390fd5b600a546040516001600160a01b038084169216907f8be0079c531659141344cd1fd0a4f28419497f9722a3daafe3b4186f6b6457e090600090a3600a80546001600160a01b0319166001600160a01b0392909216919091179055565b6000610ba5600283611fe1565b3390565b600081815260046020526040902080546001600160a01b0319166001600160a01b0384169081179091558190611b0782610e73565b6001600160a01b03167f8c5be1e5ebec7d5bd14f71427d1e84f3dd0314c0f7b2291e5b200ac8c7c3b92560405160405180910390a45050565b600082820183811015610ba2576040805162461bcd60e51b815260206004820152601b60248201527a536166654d6174683a206164646974696f6e206f766572666c6f7760281b604482015290519081900360640190fd5b600082611ba757506000610ba5565b82820282848281611bb457fe5b0414610ba25760405162461bcd60e51b815260040180806020018281038252602181526020018061318f6021913960400191505060405180910390fd5b61092c828260405180602001604052806000815250611fed565b6000610ba58261203f565b6000611c2182611ac1565b611c5c5760405162461bcd60e51b815260040180806020018281038252602c8152602001806130b6602c913960400191505060405180910390fd5b6000611c6783610e73565b9050806001600160a01b0316846001600160a01b03161480611ca25750836001600160a01b0316611c9784610720565b6001600160a01b0316145b80611cb25750611cb28185611990565b949350505050565b826001600160a01b0316611ccd82610e73565b6001600160a01b031614611d125760405162461bcd60e51b81526004018080602001828103825260298152602001806131fc6029913960400191505060405180910390fd5b6001600160a01b038216611d575760405162461bcd60e51b81526004018080602001828103825260248152602001806130926024913960400191505060405180910390fd5b611d62838383610853565b611d6d600082611ad2565b6001600160a01b0383166000908152600160205260409020611d8f9082612043565b506001600160a01b0382166000908152600160205260409020611db2908261204f565b50611dbf6002828461205b565b5080826001600160a01b0316846001600160a01b03167fddf252ad1be2c89b69c2b068fc378daa952ba7f163c4a11628f55a4df523b3ef60405160405180910390a4505050565b6000610ba28383612071565b600082821115611e69576040805162461bcd60e51b815260206004820152601e60248201527f536166654d6174683a207375627472616374696f6e206f766572666c6f770000604482015290519081900360640190fd5b50900390565b6000808080611e7e86866120d5565b9097909650945050505050565b805161092c9060099060208401906127ff565b6000611eab848484612150565b90505b9392505050565b611ec0848484611cba565b611ecc8484848461221a565b6115d65760405162461bcd60e51b815260040180806020018281038252603281526020018061303a6032913960400191505060405180910390fd5b606081611f2c57506040805180820190915260018152600360fc1b6020820152610685565b8160005b8115611f4457600101600a82049150611f30565b6000816001600160401b0381118015611f5c57600080fd5b506040519080825280601f01601f191660200182016040528015611f87576020820181803683370190505b50859350905060001982015b8315611fd857600a840660300160f81b82828060019003935081518110611fb657fe5b60200101906001600160f81b031916908160001a905350600a84049350611f93565b50949350505050565b6000610ba28383612382565b611ff7838361239a565b612004600084848461221a565b6108535760405162461bcd60e51b815260040180806020018281038252603281526020018061303a6032913960400191505060405180910390fd5b5490565b6000610ba283836124c7565b6000610ba2838361258d565b6000611eab84846001600160a01b0385166125d7565b815460009082106120b35760405162461bcd60e51b81526004018080602001828103825260228152602001806130186022913960400191505060405180910390fd5b8260000182815481106120c257fe5b9060005260206000200154905092915050565b8154600090819083106121195760405162461bcd60e51b815260040180806020018281038252602281526020018061316d6022913960400191505060405180910390fd5b600084600001848154811061212a57fe5b906000526020600020906002020190508060000154816001015492509250509250929050565b600082815260018401602052604081205482816121eb5760405162461bcd60e51b81526004018080602001828103825283818151815260200191508051906020019080838360005b838110156121b0578181015183820152602001612198565b50505050905090810190601f1680156121dd5780820380516001836020036101000a031916815260200191505b509250505060405180910390fd5b508460000160018203815481106121fe57fe5b9060005260206000209060020201600101549150509392505050565b600061222e846001600160a01b031661266e565b61223a57506001611cb2565b6000612348630a85bd0160e11b61224f611ace565b88878760405160240180856001600160a01b03168152602001846001600160a01b0316815260200183815260200180602001828103825283818151815260200191508051906020019080838360005b838110156122b657818101518382015260200161229e565b50505050905090810190601f1680156122e35780820380516001836020036101000a031916815260200191505b5095505050505050604051602081830303815290604052906001600160e01b0319166020820180516001600160e01b03838183161783525050505060405180606001604052806032815260200161303a603291396001600160a01b0388169190612674565b9050600081806020019051602081101561236157600080fd5b50516001600160e01b031916630a85bd0160e11b1492505050949350505050565b60009081526001919091016020526040902054151590565b6001600160a01b0382166123f5576040805162461bcd60e51b815260206004820181905260248201527f4552433732313a206d696e7420746f20746865207a65726f2061646472657373604482015290519081900360640190fd5b6123fe81611ac1565b1561244f576040805162461bcd60e51b815260206004820152601c60248201527b115490cdcc8c4e881d1bdad95b88185b1c9958591e481b5a5b9d195960221b604482015290519081900360640190fd5b61245b60008383610853565b6001600160a01b038216600090815260016020526040902061247d908261204f565b5061248a6002828461205b565b5060405181906001600160a01b038416906000907fddf252ad1be2c89b69c2b068fc378daa952ba7f163c4a11628f55a4df523b3ef908290a45050565b6000818152600183016020526040812054801561258357835460001980830191908101906000908790839081106124fa57fe5b906000526020600020015490508087600001848154811061251757fe5b60009182526020808320909101929092558281526001898101909252604090209084019055865487908061254757fe5b60019003818190600052602060002001600090559055866001016000878152602001908152602001600020600090556001945050505050610ba5565b6000915050610ba5565b60006125998383612382565b6125cf57508154600181810184556000848152602080822090930184905584548482528286019093526040902091909155610ba5565b506000610ba5565b60008281526001840160205260408120548061263c575050604080518082018252838152602080820184815286546001818101895560008981528481209551600290930290950191825591519082015586548684528188019092529290912055611eae565b8285600001600183038154811061264f57fe5b9060005260206000209060020201600101819055506000915050611eae565b3b151590565b6060611eab8484600085856126888561266e565b6126d9576040805162461bcd60e51b815260206004820152601d60248201527f416464726573733a2063616c6c20746f206e6f6e2d636f6e7472616374000000604482015290519081900360640190fd5b600080866001600160a01b031685876040518082805190602001908083835b602083106127175780518252601f1990920191602091820191016126f8565b6001836020036101000a03801982511681845116808217855250505050505090500191505060006040518083038185875af1925050503d8060008114612779576040519150601f19603f3d011682016040523d82523d6000602084013e61277e565b606091505b509150915061278e828286612799565b979650505050505050565b606083156127a8575081611eae565b8251156127b85782518084602001fd5b60405162461bcd60e51b81526020600482018181528451602484015284518593919283926044019190850190808383600083156121b0578181015183820152602001612198565b828054600181600116156101000203166002900490600052602060002090601f016020900481019282612835576000855561287b565b82601f1061284e57805160ff191683800117855561287b565b8280016001018555821561287b579182015b8281111561287b578251825591602001919060010190612860565b5061288792915061288b565b5090565b5b80821115612887576000815560010161288c565b60006001600160401b03808411156128b457fe5b604051601f8501601f1916810160200182811182821017156128d257fe5b6040528481529150818385018610156128ea57600080fd5b8484602083013760006020868301015250509392505050565b80356001600160a01b038116811461068557600080fd5b600082601f83011261292a578081fd5b610ba2838335602085016128a0565b60006020828403121561294a578081fd5b610ba282612903565b60008060408385031215612965578081fd5b61296e83612903565b915061297c60208401612903565b90509250929050565b600080600060608486031215612999578081fd5b6129a284612903565b92506129b060208501612903565b9150604084013590509250925092565b600080600080608085870312156129d5578081fd5b6129de85612903565b93506129ec60208601612903565b92506040850135915060608501356001600160401b03811115612a0d578182fd5b8501601f81018713612a1d578182fd5b612a2c878235602084016128a0565b91505092959194509250565b60008060408385031215612a4a578182fd5b612a5383612903565b915060208301358015158114612a67578182fd5b809150509250929050565b60008060408385031215612a84578182fd5b612a8d83612903565b946020939093013593505050565b600060208284031215612aac578081fd5b5051919050565b600060208284031215612ac4578081fd5b81356001600160e01b031981168114610ba2578182fd5b600060208284031215612aec578081fd5b81356001600160401b03811115612b01578182fd5b611cb28482850161291a565b600060208284031215612b1e578081fd5b5035919050565b60008060408385031215612b37578182fd5b8235915060208301356001600160401b03811115612b53578182fd5b612b5f8582860161291a565b9150509250929050565b60008151808452612b81816020860160208601612feb565b601f01601f19169290920160200192915050565b60008251612ba7818460208701612feb565b9190910192915050565b6000808354600180821660008114612bd05760018114612be757612c16565b60ff198316865260028304607f1686019350612c16565b600283048786526020808720875b83811015612c0e5781548a820152908501908201612bf5565b505050860193505b509195945050505050565b6001600160a01b0391909116815260200190565b600060018060a01b038516825283602083015260606040830152612c5c6060830184612b69565b95945050505050565b6000602080830181845280855180835260408601915060408482028701019250838701855b82811015612cb857603f19888603018452612ca6858351612b69565b94509285019290850190600101612c8a565b5092979650505050505050565b6020808252825182820181905260009190848201906040850190845b81811015612cfd57835183529284019291840191600101612ce1565b50909695505050505050565b901515815260200190565b600060208252610ba26020830184612b69565b60006020808301818452828554600180821660008114612d4e5760018114612d6c57612da4565b60028304607f16855260ff1983166040890152606088019350612da4565b60028304808652612d7c8a612fdf565b885b82811015612d9a5781548b820160400152908401908801612d7e565b8a01604001955050505b5091979650505050505050565b6020808252601e908201527f43484f4f53452041204d455441424145532057495448494e2052414e47450000604082015260600190565b6020808252818101527f4e6f7420656e6f7567682072657365727665206c65667420666f72207465616d604082015260600190565b6020808252601f908201527f45746865722076616c75652073656e74206973206e6f7420636f727265637400604082015260600190565b6020808252602b908201527f4865792c20796f75722077616c6c657420646f65736e2774206f776e2074686960408201526a73206d657461626165732160a81b606082015260800190565b60208082526021908201527f43616e206f6e6c79206d696e7420323020746f6b656e7320617420612074696d6040820152606560f81b606082015260800190565b6020808252601e908201527f43686f6f73652061206d657461626173652077697468696e2072616e67650000604082015260600190565b60208082526023908201527f4e6577206e616d652069732073616d65206173207468652063757272656e74206040820152626f6e6560e81b606082015260800190565b602080825260169082015275131a58d95b9cd948185b1c9958591e481b1bd8dad95960521b604082015260600190565b6020808252602c908201527f507572636861736520776f756c6420657863656564206d617820737570706c7960408201526b206f66204d6574616261657360a01b606082015260800190565b90815260200190565b60009081526020902090565b60005b83811015613006578181015183820152602001612fee565b838111156115d6575050600091015256fe456e756d657261626c655365743a20696e646578206f7574206f6620626f756e64734552433732313a207472616e7366657220746f206e6f6e20455243373231526563656976657220696d706c656d656e7465724f776e61626c653a206e6577206f776e657220697320746865207a65726f20616464726573734552433732313a207472616e7366657220746f20746865207a65726f20616464726573734552433732313a206f70657261746f7220717565727920666f72206e6f6e6578697374656e7420746f6b656e4552433732313a20617070726f76652063616c6c6572206973206e6f74206f776e6572206e6f7220617070726f76656420666f7220616c6c4552433732313a2062616c616e636520717565727920666f7220746865207a65726f20616464726573734552433732313a206f776e657220717565727920666f72206e6f6e6578697374656e7420746f6b656e456e756d657261626c654d61703a20696e646578206f7574206f6620626f756e6473536166654d6174683a206d756c7469706c69636174696f6e206f766572666c6f774552433732313a20617070726f76656420717565727920666f72206e6f6e6578697374656e7420746f6b656e4f776e61626c653a2063616c6c6572206973206e6f7420746865206f776e65724552433732313a207472616e73666572206f6620746f6b656e2074686174206973206e6f74206f776e4552433732314d657461646174613a2055524920717565727920666f72206e6f6e6578697374656e7420746f6b656e4552433732313a20617070726f76616c20746f2063757272656e74206f776e65724552433732313a207472616e736665722063616c6c6572206973206e6f74206f776e6572206e6f7220617070726f766564a2646970667358221220cc1c1bbd2199e9047744e05495363176fa8d0e5190d980e87885749dcf2e4dc364736f6c63430007060033",
  "immutableReferences": {},
  "source": "// SPDX-License-Identifier: MIT\npragma solidity ^0.7.0;\npragma abicoder v2;\n// import \"@openzeppelin/contracts/utils/Context.sol\";\n// import \"@openzeppelin/contracts/token/ERC721/IERC721.sol\";\n// import \"@openzeppelin/contracts/token/ERC721/IERC721Receiver.sol\";\n// import \"@openzeppelin/contracts/utils/Address.sol\";\n// import \"@openzeppelin/contracts/utils/Strings.sol\";\nimport \"@openzeppelin/contracts/token/ERC721/ERC721.sol\";\nimport \"@openzeppelin/contracts/access/Ownable.sol\";\nimport \"@openzeppelin/contracts/math/SafeMath.sol\";\n\ncontract Metabaes is ERC721, Ownable {\n\n    using SafeMath for uint256;\n\n    string public METABAES_PROVENANCE = \"\"; // IPFS URL WILL BE ADDED WHEN METABAES ARE ALL SOLD OUT\n    \n    string public LICENSE_TEXT = \"\"; // IT IS WHAT IT SAYS\n    \n    bool licenseLocked = false; // TEAM CAN'T EDIT THE LICENSE AFTER THIS GETS TRUE\n\n    uint256 public constant metabaesPrice = 25000000000000000; // 0.025 ETH\n\n    uint public constant maxMetabaesPurchase = 20;\n\n    uint256 public constant MAX_METABAES = 7777;\n\n    // bool public saleIsActive = false;\n    \n    mapping(uint => string) public metabaesNames;\n    \n    // Reserve 125 Metabaes for team - Giveaways/Prizes etc\n    uint public metabaesReserve = 125;\n    \n    event metabaesNameChange(address _by, uint _tokenId, string _name);\n    \n    event licenseisLocked(string _licenseText);\n\n    // constructor(address _proxyRegistryAddress)\n    //     ERC721Tradable(\"Metabaes\", \"MTB\", _proxyRegistryAddress)\n    // {}\n    constructor() ERC721(\"Metabaes\", \"MTB\") {}\n\n    // function baseTokenURI() override public pure returns (string memory) {\n    //     return \"https://creatures-api.opensea.io/api/creature/\";\n    // }\n\n    // function contractURI() public pure returns (string memory) {\n    //     return \"https://creatures-api.opensea.io/contract/opensea-creatures\";\n    // }\n\n    function withdraw() public onlyOwner {\n        uint balance = address(this).balance;\n        payable(msg.sender).transfer(balance);\n    }\n    \n    function reserveMetabaes(address _to, uint256 _reserveAmount) public onlyOwner {        \n        uint supply = totalSupply();\n        require(_reserveAmount > 0 && _reserveAmount <= metabaesReserve, \"Not enough reserve left for team\");\n        for (uint i = 0; i < _reserveAmount; i++) {\n            _safeMint(_to, supply + i);\n        }\n        metabaesReserve = metabaesReserve.sub(_reserveAmount);\n    }\n\n\n    function setProvenanceHash(string memory provenanceHash) public onlyOwner {\n        METABAES_PROVENANCE = provenanceHash;\n    }\n\n    function setBaseURI(string memory baseURI) public onlyOwner {\n        _setBaseURI(baseURI);\n    }\n\n\n    // function flipSaleState() public onlyOwner {\n    //     saleIsActive = !saleIsActive;\n    // }\n    \n    \n    function tokensOfOwner(address _owner) external view returns(uint256[] memory ) {\n        uint256 tokenCount = balanceOf(_owner);\n        if (tokenCount == 0) {\n            // Return an empty array\n            return new uint256[](0);\n        } else {\n            uint256[] memory result = new uint256[](tokenCount);\n            uint256 index;\n            for (index = 0; index < tokenCount; index++) {\n                result[index] = tokenOfOwnerByIndex(_owner, index);\n            }\n            return result;\n        }\n    }\n    \n    // Returns the license for tokens\n    function tokenLicense(uint _id) public view returns(string memory) {\n        require(_id < totalSupply(), \"CHOOSE A METABAES WITHIN RANGE\");\n        return LICENSE_TEXT;\n    }\n    \n    // Locks the license to prevent further changes \n    function lockLicense() public onlyOwner {\n        licenseLocked =  true;\n        emit licenseisLocked(LICENSE_TEXT);\n    }\n    \n    // Change the license\n    function changeLicense(string memory _license) public onlyOwner {\n        require(licenseLocked == false, \"License already locked\");\n        LICENSE_TEXT = _license;\n    }\n    \n    \n    function mintMetabaes(uint numberOfTokens) public payable {\n        // require(saleIsActive, \"Sale must be active to mint METABAES\");\n        require(numberOfTokens > 0 && numberOfTokens <= maxMetabaesPurchase, \"Can only mint 20 tokens at a time\");\n        require(totalSupply().add(numberOfTokens) <= MAX_METABAES, \"Purchase would exceed max supply of Metabaes\");\n        require(msg.value >= metabaesPrice.mul(numberOfTokens), \"Ether value sent is not correct\");\n        \n        for(uint i = 0; i < numberOfTokens; i++) {\n            uint mintIndex = totalSupply();\n            if (totalSupply() < MAX_METABAES) {\n                _safeMint(msg.sender, mintIndex);\n            }\n        }\n\n    }\n     \n    function changeMetabaesName(uint _tokenId, string memory _name) public {\n        require(ownerOf(_tokenId) == msg.sender, \"Hey, your wallet doesn't own this metabaes!\");\n        require(sha256(bytes(_name)) != sha256(bytes(metabaesNames[_tokenId])), \"New name is same as the current one\");\n        metabaesNames[_tokenId] = _name;\n        \n        emit metabaesNameChange(msg.sender, _tokenId, _name);\n        \n    }\n    \n    function viewMetabaesName(uint _tokenId) public view returns( string memory ){\n        require( _tokenId < totalSupply(), \"Choose a metabase within range\" );\n        return metabaesNames[_tokenId];\n    }\n    \n    \n    // GET ALL METABAES OF A WALLET AS AN ARRAY OF STRINGS. WOULD BE BETTER MAYBE IF IT RETURNED A STRUCT WITH ID-NAME MATCH\n    function metabaesNamesOfOwner(address _owner) external view returns(string[] memory ) {\n        uint256 tokenCount = balanceOf(_owner);\n        if (tokenCount == 0) {\n            // Return an empty array\n            return new string[](0);\n        } else {\n            string[] memory result = new string[](tokenCount);\n            uint256 index;\n            for (index = 0; index < tokenCount; index++) {\n                result[index] = metabaesNames[ tokenOfOwnerByIndex(_owner, index) ] ;\n            }\n            return result;\n        }\n    }\n}",
  "sourcePath": "/home/einsfar/Workshop/NFT-Metabaes/contracts/Metabaes.sol",
  "compiler": {
    "name": "solc",
    "version": "0.7.6+commit.7338295f.Emscripten.clang"
  },
  "schemaVersion": "3.4.3",
  "updatedAt": "2021-09-06T13:37:48.130Z",
  "networkType": "ethereum",
  "devdoc": {
    "kind": "dev",
    "methods": {
      "approve(address,uint256)": {
        "details": "See {IERC721-approve}."
      },
      "balanceOf(address)": {
        "details": "See {IERC721-balanceOf}."
      },
      "baseURI()": {
        "details": "Returns the base URI set via {_setBaseURI}. This will be automatically added as a prefix in {tokenURI} to each token's URI, or to the token ID if no specific URI is set for that token ID."
      },
      "getApproved(uint256)": {
        "details": "See {IERC721-getApproved}."
      },
      "isApprovedForAll(address,address)": {
        "details": "See {IERC721-isApprovedForAll}."
      },
      "name()": {
        "details": "See {IERC721Metadata-name}."
      },
      "owner()": {
        "details": "Returns the address of the current owner."
      },
      "ownerOf(uint256)": {
        "details": "See {IERC721-ownerOf}."
      },
      "renounceOwnership()": {
        "details": "Leaves the contract without owner. It will not be possible to call `onlyOwner` functions anymore. Can only be called by the current owner. NOTE: Renouncing ownership will leave the contract without an owner, thereby removing any functionality that is only available to the owner."
      },
      "safeTransferFrom(address,address,uint256)": {
        "details": "See {IERC721-safeTransferFrom}."
      },
      "safeTransferFrom(address,address,uint256,bytes)": {
        "details": "See {IERC721-safeTransferFrom}."
      },
      "setApprovalForAll(address,bool)": {
        "details": "See {IERC721-setApprovalForAll}."
      },
      "supportsInterface(bytes4)": {
        "details": "See {IERC165-supportsInterface}. Time complexity O(1), guaranteed to always use less than 30 000 gas."
      },
      "symbol()": {
        "details": "See {IERC721Metadata-symbol}."
      },
      "tokenByIndex(uint256)": {
        "details": "See {IERC721Enumerable-tokenByIndex}."
      },
      "tokenOfOwnerByIndex(address,uint256)": {
        "details": "See {IERC721Enumerable-tokenOfOwnerByIndex}."
      },
      "tokenURI(uint256)": {
        "details": "See {IERC721Metadata-tokenURI}."
      },
      "totalSupply()": {
        "details": "See {IERC721Enumerable-totalSupply}."
      },
      "transferFrom(address,address,uint256)": {
        "details": "See {IERC721-transferFrom}."
      },
      "transferOwnership(address)": {
        "details": "Transfers ownership of the contract to a new account (`newOwner`). Can only be called by the current owner."
      }
    },
    "version": 1
  },
  "userdoc": {
    "kind": "user",
    "methods": {},
    "version": 1
  }
}